:0200000490006A
:1000000070460024AD020090E9260090B3030090F2
:10001000B3030090410500901937009000000000E4
:10002000000000000000000000000000112B009004
:100030004905009000000000FF020090492B00904D
:10004000C7020090C7020090C7020090C70200904C
:10005000C7020090C7020090C7020090C70200903C
:10006000C7020090C7020090C7020090C70200902C
:10007000C7020090C7020090C7020090C70200901C
:10008000C7020090C7020090C7020090C70200900C
:10009000C7020090C7020090C7020090C7020090FC
:1000A000C7020090C7020090C7020090C7020090EC
:1000B000C7020090C7020090C7020090C7020090DC
:1000C000C7020090C7020090C7020090C7020090CC
:1000D000C7020090C7020090C7020090C7020090BC
:1000E000C7020090C702009000000000C702009005
:1000F000C7020090C7020090C7020090C70200909C
:10010000C7020090C7020090C7020090C70200908B
:10011000C7020090C7020090C7020090C70200907B
:10012000C7020090C7020090C7020090C70200906B
:10013000C7020090C7020090C7020090C70200905B
:1001400000000000000000000000000000000000AF
:10015000C7020090C7020090C7020090C70200903B
:10016000C7020090C7020090C7020090C70200902B
:10017000C7020090C7020090C7020090C70200901B
:10018000C7020090C7020090C7020090C70200900B
:10019000C7020090C7020090C7020090C7020090FB
:1001A000C7020090C7020090C7020090C7020090EB
:1001B000C7020090C7020090C7020090C7020090DB
:1001C000C7020090C7020090C7020090C7020090CB
:1001D000C7020090C7020090C7020090C7020090BB
:1001E000C7020090C7020090C7020090C7020090AB
:1001F000C7020090C7020090C7020090C70200909B
:10020000C7020090C7020090C7020090C70200908A
:10021000C7020090C7020090C7020090C70200907A
:10022000C7020090C7020090C702009000000000C3
:10023000C7020090C702009000000000C7020090B3
:10024000C7020090C7020090C7020090C70200904A
:10025000C7020090C7020090C7020090C70200903A
:10026000C7020090C7020090C7020090C70200902A
:10027000C7020090C7020090C70200900000000073
:10028000C7020090C7020090C70200900000000063
:1002900000000000C7020090DFF80CD000F036F933
:1002A000004800473105009070460024064880470A
:1002B00006480047FEE7FEE7FEE7FEE7FEE7FEE74B
:1002C000FEE7FEE7FEE7FEE7A12D00909902009011
:1002D000EFF3108072B6704780F310887047434A7E
:1002E0001368012B04D04FF001031360404A1060E3
:1002F000404A116040484FF0805101607047EFF371
:10030000108272B63948016851B34FF000010160A4
:100310003748016891B1EFF309811EF0100F08BF53
:1003200021ED108B21E9F00F4FF000041EF0100FAB
:1003300008BF012441F8044D006801602D49096897
:10034000096808C9B1E8F00F002B18BFB1EC108B99
:1003500081F309884EF0100E002B18BF2EF0100EFE
:1003600082F310884EF0040E704722490860EFF3C4
:10037000148222F0040282F314881D494FF0000019
:1003800008601A494FF0010008601C484FF47F01D3
:10039000D0F8002041EA0201016017484FF0805177
:1003A000016017480068006880F3088861B662B68B
:1003B00070471EF0040F0CBFEFF30880EFF30980C5
:1003C00020E9F00F40F804ED40F804ED1EF0040FB2
:1003D0000CBF80F3088880F3098800B504F09CFE08
:1003E0005DF804EB4EF0040E70470000504200240C
:1003F000343F00243C3F002404ED00E020ED00E009
:1004000008ED00E02DE9F05F0546002092469B468E
:1004100088460646814640241BE02846414647461A
:10042000224600F063F853465A46C01A914110D351
:1004300011461846224600F04AF82D1A67EB0108CB
:100440004F4622460120002100F041F817EB000939
:100450004E41201EA4F10104DFDC484631462A4605
:100460004346BDE8F09FD2B201E000F8012B491EDF
:10047000FBD270470022F6E710B513460A46044641
:100480001946FFF7F0FF204610BD10B5044604E002
:100490000B7800F8013B03B1491C521EF8D22046EC
:1004A00010BD421C10F8011B0029FBD1801A7047B7
:1004B00030B505460020034600E05B1C934205D2A0
:1004C000EC5CC85C201A01D1002CF6D130BD202A8A
:1004D00004DB203A00FA02F1002070479140C2F19B
:1004E000200320FA03F3194390407047202A04DBCD
:1004F000203A21FA02F00021704721FA02F3D0409D
:10050000C2F120029140084319467047064C074D3E
:1005100006E0E06840F0010394E8070098471034D3
:10052000AC42F6D3FFF7BCFE2C6E00904C6E0090F0
:1005300080B506F045F8002080BD000000000000F6
:10054000FEE700000000000070470000000000000F
:10055000EFF3108072B600BFFEE70000000000005D
:100560002DE9F04F83B00C68002C00F0C68000F13C
:10057000264242F2004702F1FF72C5F602074FEA37
:10058000B22201920A22B84208BF092200250027A0
:100590004FF0010A009209E00C68043734FA0AF2BD
:1005A0000AF1010A05F1020500F0A780AAF101098C
:1005B000012202FA09FE14EA0E08EDD0D1F804B0C7
:1005C0000BF00304A4F1010CBCF1010F11D80322BC
:1005D0008668AA40CB6826EA0202AB401A438260D2
:1005E0004268CBF3001322EA0E0203FA09F31A431E
:1005F0004260032C1ED00323C268AB40022C22EAC7
:1006000003028B6803FA05F342EA0302C26011D1C8
:100610006FF0030207F01C0602EA59020F2302449E
:1006200003FA06F4D2F820C00B692CEA0404B340A4
:100630002343136203230268AB404E689A4306F0DB
:100640000303AB4016F4403F42EA03020260A3D02A
:1006500044F2F44340F2084EC5F60203C5F6000E1C
:100660001A6842F002021A601A6807F00C0302F0DE
:1006700002020292029A29F00302019C009E092CB8
:1006800038BF26460F2452F80EC09C402CEA0404C2
:1006900006FA03F34FF0B04C234342F80E30DCF877
:1006A00000204B6842EA0806DC0258BF22EA08062E
:1006B0009C02CCF8006040F2040CC5F6000CDCF89B
:1006C000002042EA080658BF22EA08069C03CCF83C
:1006D0000060DCF8802042EA080658BF22EA0806DB
:1006E000DB03CCF88060DCF87C2042EA080658BFC7
:1006F00022EA0806CCF87C604EE703B0BDE8F08F34
:10070000002A08BF09048161704700000000000052
:1007100041F20000C5F600400068000C7047000080
:1007200080B505F089FC80BD80B5032000F07CF821
:1007300001F05EF844F2184146F2F873C5F6020182
:10074000C9F200030A68C2F30322096801F00F012D
:100750009A5C595C02F01F02D04040F20402C2F2DF
:10076000004201F01F0120FA01F1116040F2000186
:10077000C2F2004108600F2000F00AF800281CBFF8
:10078000012080BD00F030F8002080BD0000000096
:10079000B0B540F24801C2F20041097801B3044605
:1007A00040F20000C2F200404FF47A72B2FBF1F165
:1007B0000068B0FBF1F001F093FD0F2C4FF0010544
:1007C0000CD858B94FF0FF3000222146002500F028
:1007D0001BF840F24C00C2F2004004602846B0BD55
:1007E0000120B0BD0000000081B044F2F440C5F625
:1007F0000200016841F002010160006800F002009F
:100800000090009801B0704770B514460D4606463A
:1008100002F086FF2946224601F06AFF0146304673
:1008200002F086FF70BD000080B502F095FF80BD2C
:10083000B0B544F60C05C5F60205296849072968D4
:1008400005D401F00701081A18BF0120B0BD21F03E
:10085000070108432860FFF763FF044655F8080CBA
:10086000800407D4FFF75CFF001BB0F57A7FF5D951
:100870000120B0BD0020B0BD80B500F069FF44F29A
:10088000204146F2F872C5F60201C9F20002096879
:10089000C1F30211515C01F01F01C84080BD00008E
:1008A00080B544F2384EC5F6020E5EF8103C5EF894
:1008B000102CC2F3053C5EF80C2CBCF1000FC2F307
:1008C0000012DEF80410C1F3CC0102FB01F100EECE
:1008D000101AB8EE400A0BD003F00303022B0CD021
:1008E00073B95EF8381C89060DD49FED351A18E0EF
:1008F0000021C0E90011816080BD9FED301A10E039
:100900009FED2D1A0DE05EF8381C49F20002C0F28E
:10091000D032C1F3C10122FA01F101EE101AB8EE92
:10092000411A02EE10CA9FED274AB8EE422ADEF8BD
:1009300000106FF35F2103EE101A81EE021AB8EE79
:10094000433ADEF8001000EE043AB7EE000AC1F3B5
:10095000462133EE002A03EE101AB8EE433A21EE98
:10096000021A33EE002A81EE022ABCEEC22A80ED82
:10097000002ADEF80010C1F3064102EE101AB8EEAC
:10098000422A32EE002A81EE022ABCEEC22A80ED13
:10099000012ADEF80010C1F3066102EE101AB8EE6B
:1009A000422A32EE000A81EE000ABCEEC00A10EEC6
:1009B000101A816080BD00BF0024744A20BCBE4B69
:1009C0000024744C0000003980B544F2404EC5F656
:1009D000020E5EF8183C5EF8182CC2F3055C5EF857
:1009E000142CBCF1000FC2F30022DEF80410C1F396
:1009F000CC0102FB01F100EE101AB8EE400A0BD058
:100A000003F00303022B0CD073B95EF8401C890677
:100A10000DD49FED351A18E00021C0E90011816066
:100A200080BD9FED301A10E09FED2D1A0DE05EF8AD
:100A3000401C49F20002C0F2D032C1F3C10122FAD7
:100A400001F101EE101AB8EE411A02EE10CA9FED44
:100A5000274AB8EE422ADEF800106FF35F2103EE5A
:100A6000101A81EE021AB8EE433ADEF8001000EEDA
:100A7000043AB7EE000AC1F3462133EE002A03EE32
:100A8000101AB8EE433A21EE021A33EE002A81EE34
:100A9000022ABCEEC22A80ED002ADEF80010C1F363
:100AA000064102EE101AB8EE422A32EE002A81EE1A
:100AB000022ABCEEC22A80ED012ADEF80010C1F342
:100AC000066102EE101AB8EE422A32EE000A81EEFA
:100AD000000ABCEEC00A10EE101A816080BD00BF93
:100AE0000024744A20BCBE4B0024744C0000003922
:100AF0002DE9F04381B00446C07844F22C49000748
:100B0000C5F6020901D400252EE0A06E4FEA305050
:100B100003280DD80025DFE800F0020E1714D9F8DD
:100B20000000002540F40030C9F8000055B913E07A
:100B300001253DB910E004F10800022101F0F0FDAB
:100B400005464DB1A84611E004F12800022101F04C
:100B500077FE0546002DF5D1D9F82400A16E20F4CA
:100B600040100843C9F824004FF000086078C0071F
:100B700030D0A06D042807D8DFE800F00A131C036A
:100B80000300FDB1A84625E00125002DFAD119E0AA
:100B9000D9F8000040F40030C9F80000002DF1D170
:100BA00010E004F10800002101F0BAFD0546002D17
:100BB000E8D107E004F12800002101F041FE0546DC
:100BC000002DDFD1D9F82400A16D20F007000843E3
:100BD000C9F824006078800732D5E06D4FEAB01084
:100BE000042807D8DFE800F00A131C030300FDB156
:100BF000A84625E00125002DFAD119E0D9F800001A
:100C000040F40030C9F80000002DF1D110E004F1EB
:100C10000800002101F084FD0546002DE8D107E021
:100C200004F12800002101F00BFE0546002DDFD164
:100C3000D9F82400E16D20F4E0700843C9F82400DD
:100C40006078400734D5D4F8A8004FEA70500428E3
:100C500007D8DFE800F00A131C030300FDB1A84623
:100C600026E00125002DFAD119E0D9F8000040F462
:100C70000030C9F80000002DF1D110E004F10800A7
:100C8000002101F04DFD0546002DE8D107E004F1FB
:100C90002800002101F0D4FD0546002DDFD1D9F850
:100CA0002C00D4F8A81020F460000843C9F82C00E8
:100CB0006078000734D5D4F8AC004FEA30600428DF
:100CC00007D8DFE800F00A131C030300FDB1A846B3
:100CD00026E00125002DFAD119E0D9F8000040F4F2
:100CE0000030C9F80000002DF1D110E004F1080037
:100CF000002101F015FD0546002DE8D107E004F1C3
:100D00002800002101F09CFD0546002DDFD1D9F817
:100D10002C00D4F8AC1020F0E0600843C9F82C0097
:100D2000E078800728D5E06C4FEA3010032806D819
:100D3000DFE800F002091202B5B1A8461CE0012567
:100D4000002DFAD110E0D9F8000040F40030C9F8C5
:100D50000000002DF1D107E004F10800022101F0AC
:100D6000DFFC0546002DE8D1D9F82000E16C20F029
:100D700030000843C9F820006078C00632D5206EE4
:100D80004FEA3030042807D8DFE800F00A131C03CC
:100D90000300FDB1A84625E00125002DFAD119E098
:100DA000D9F8000040F40030C9F80000002DF1D15E
:100DB00010E004F10800002101F0B2FC0546002D0E
:100DC000E8D107E004F12800002101F039FD0546D3
:100DD000002DDFD1D9F82400216E20F4E040084333
:100DE000C9F824006078800626D5606E4FEA30404E
:100DF000052807D8DFE800F0030A100303039DB1BC
:100E0000A84619E00125002DFAD10DE004F10800F3
:100E1000012101F085FC04E004F12800012101F02A
:100E20000FFD0546002DEBD1D9F82400616E20F4AA
:100E3000E0200843C9F824006078400628D5D4F89B
:100E4000B0004FEA3070052807D8DFE800F0030A49
:100E5000100303039DB1A8461AE00125002DFAD125
:100E60000DE004F10800012101F05AFC04E004F156
:100E70002800012101F0E4FC0546002DEBD1D9F852
:100E80002C00D4F8B01020F0E0400843C9F82C0042
:100E90006078000620D5206FD8B1B0F1005F12D085
:100EA000B0F1805F25D1D9F8000040F40030C9F8D6
:100EB000000085B9D9F82400216F20F04050084384
:100EC000C9F8240008E004F10800012101F028FC21
:100ED0000546002DEED0A846E078C0072AD0A06CC9
:100EE00003280AD8DFE800F0020D1602D5B1A846A3
:100EF00020E00125002DEED1DCE70125002DF6D103
:100F000010E0D9F8000040F40030C9F80000002DCE
:100F1000EDD107E004F10800022101F001FC0546D3
:100F2000002DE4D1D9F82000A16C20F00300084383
:100F3000C9F82000A078400642D5D9F8D40340F47F
:100F40008070C9F8D403FFF7EBFB0646D9F8D40349
:100F5000C00505D4FFF7E4FB801B6528F6D3032505
:100F60006DBBD9F84410D4F8B400414011F4407F6F
:100F700011D0D9F84410D9F8442042F48032C9F88D
:100F80004420D9F8442021F4407122F48032C9F879
:100F90004420C9F84410B0F5807F0FD1FFF7C0FBA3
:100FA000064641F2893700BFD9F84400800705D4CE
:100FB000FFF7B6FB801BB842F6D3032585B1A846E0
:100FC0002078C00742D0E06F4FEAF000052823D810
:100FD000DFE800F003262C0303037DB3A84635E0C9
:100FE0004FF6CF73D4F8B40059F81C2CC0F2FF03AD
:100FF00000F4407122F47C5203EA1013B1F5407FF3
:1010000008BF1A436FF31F3049F81C2CD9F844105D
:101010000843C9F84400D3E70125002DDED10DE0D7
:1010200004F10800012101F07BFB04E004F1280039
:10103000012101F005FC0546002DCFD1D9F828008B
:10104000E16F20F038000843C9F8280020788007B5
:1010500024D5A06F052807D8DFE800F0030A1003A5
:1010600003039DB1A84619E00125002DFAD10DE03A
:1010700004F10800012101F053FB04E004F1280011
:10108000012101F0DDFB0546002DEBD1D9F8280048
:10109000A16F20F007000843C9F828002078400716
:1010A00026D5D4F89400052807D8DFE800F0030A15
:1010B000100303039DB1A8461AE00125002DFAD1C3
:1010C0000DE004F10800012101F02AFB04E004F125
:1010D0002800012101F0B4FB0546002DEBD1D9F821
:1010E0002C00D4F8941020F007000843C9F82C0015
:1010F0002078800628D5D4F890004FEA3070052873
:1011000007D8DFE800F0030A100303039DB1A846E7
:101110001AE00125002DFAD10DE004F108000021AC
:1011200001F0FEFA04E004F12800022101F088FB3E
:101130000546002DEBD1D9F82800D4F8901020F006
:10114000E0400843C9F828002078400628D5D4F8A4
:101150009C004FEAB020052807D8DFE800F0030A1A
:10116000100303039DB1A8461AE00125002DFAD112
:101170000DE004F10800002101F0D2FA04E004F1CE
:101180002800022101F05CFB0546002DEBD1D9F8C7
:101190002C00D4F89C1020F4E0500843C9F82C002F
:1011A0002078000628D5D4F8A0004FEA7030052832
:1011B00007D8DFE800F0030A100303039DB1A84637
:1011C0001AE00125002DFAD10DE004F108000021FC
:1011D00001F0A6FA04E004F12800022101F030FB3E
:1011E0000546002DEBD1D9F82C00D4F8A01020F43E
:1011F00060400843C9F82C002078000716D5D4F8C1
:101200008400B0F5805F08D104F12800022101F0CC
:1012100017FB002818BF4FF00108D9F82800D4F8B0
:10122000841020F440500843C9F828002078C006F4
:1012300016D5D4F89800B0F5807F08D104F12800C5
:10124000022101F0FDFA002818BF4FF00108D9F87B
:101250002C00D4F8981020F440700843C9F82C00F2
:10126000A078000722D5D4F8A400B0F5003F1AD02A
:10127000B0F5803F11D0C8BB04F10800002101F097
:101280004FFA05468DB9D9F82C00D4F8A41020F4F3
:1012900040300843C9F82C0008E004F1280002217E
:1012A00001F0CEFA0546002DEDD0A846A078400703
:1012B00029D5D4F88800B0F5401F21D0B0F5001F23
:1012C00018D0B0F5801F40F0BF80D9F8000040F47E
:1012D0000030C9F80000ADB9D9F82800D4F888105A
:1012E00020F440100843C9F828000CE00125002D27
:1012F000DBD1C8E704F12800012101F0A1FA05467D
:10130000002DE9D0A846A078C00720D0206DB0F508
:10131000803F10D0B8B9D9F8000040F40030C9F8C7
:1013200000009DB9D9F82000216D20F480300843D9
:10133000C9F820000BE004F10800022101F0F0F9E7
:1013400005461DB9EEE70125002DEBD0A846E07853
:10135000800608D504F12800022101F071FA002866
:1013600018BF4FF00108D4E900108A037BD5D4F8E8
:1013700080206FF0010303EB3223022B0AD34FEAE4
:1013800032233BB1012B64D1D9F8003043F4003350
:10139000C9F80030002D5FD0CA0267D4CA006FD4EC
:1013A0008A0279D44A0000F18280B1F1FF3F40F314
:1013B0008F80090200F19780C00707D004F1080070
:1013C000002101F0ADF9002818BF054620798007FB
:1013D00007D504F10800012101F0A2F9002818BF87
:1013E00005462079400707D504F10800022101F0E5
:1013F00097F9002818BF05462079000707D504F1A2
:101400002800002101F01CFA002818BF05462079A9
:10141000C00607D504F12800012101F011FA0028C7
:1014200018BF05462079800607D504F1280002215F
:1014300001F006FA002818BF0125002D18BF01256C
:10144000284601B0BDE8F0830125002D7FF45AAF96
:1014500042E70125002D9FD1D9F8283023F44073AD
:101460001A43C9F828204546CA0297D5D9F824203E
:10147000636F22F000421A43C9F82420CA008FD5B6
:1014800059F81C2CD4F8B83022F480421A4349F899
:101490001C2C8A027FF586AFD9F82420E36E22F057
:1014A00080721A43C9F824204A007FF57EAF59F8AC
:1014B0001C2C22F4004249F81C2CD4F8BC2059F80A
:1014C0001C3C1A4349F81C2CB1F1FF3F3FF771AFA8
:1014D000D9F82020636D22F040521A43C9F8202029
:1014E00009027FF569AFD9F82810D4F88C2021F4CF
:1014F00040011143C9F82810C0077FF45FAF65E7CA
:101500002DE9F04381B0002800F0F28042F200089B
:101510000446C5F200288946D8F8000000F00F0004
:1015200088420ED2D8F8000020F00F0040EA0900EF
:10153000C8F80000D8F8000000F00F00484540F05F
:10154000D780206844F218474107C5F602070AD53C
:1015500021693A6802F07002914204D93A6822F097
:1015600070021143396001070AD561697A6802F097
:101570007002914204D97A6822F0700211437960B6
:10158000C1060AD5A1697A6802F4E062914204D9E1
:101590007A6822F4E0621143796081060AD5E16934
:1015A000BA6802F07002914204D9BA6822F070025F
:1015B0001143B96081070AD5E1683A6802F00F0269
:1015C000914204D93A6822F00F0211433960C007F2
:1015D0007ED1206881070AD5E1683A6802F00F02DF
:1015E000914204D23A6822F00F0211433960D8F8D0
:1015F000001001F00F0149450DD9D8F8001021F075
:101600000F0141EA0901C8F80010D8F8001001F0F4
:101610000F0149456CD141070AD521693A6802F0AA
:101620007002914204D23A6822F07002114339608C
:1016300001070AD561697A6802F07002914204D20A
:101640007A6822F0700211437960C1060AD5A16957
:101650007A6802F4E062914204D27A6822F4E0628D
:101660001143796080060AD5E069B96801F070011C
:10167000884204D2B96821F070010843B86000F0D4
:10168000B7F8396846F2F872C9F20002C1F30321D3
:101690003B6803F00F03515CD25C01F01F01C840AE
:1016A00002F01F0140F2040220FA01F1C2F20042EE
:1016B000116040F2000140F24C02C2F20041C2F25D
:1016C000004208601068FFF763F801B0BDE8F083DE
:1016D000386820F47061D4E90102032841EA02016C
:1016E000396009D0022829D157F8181C890307D47A
:1016F000012001B0BDE8F08357F8181C8901F7D527
:1017000057F8081C21F00701084347F8080CFFF7B9
:1017100007F8064641F2883557F8080C616800F072
:101720003800B0EBC10F3FF454AFFEF7F9FF801B58
:10173000A842F1D9032001B0BDE8F083012857F891
:10174000181C02D1C905D3D5DAE74907D0D5D7E7A8
:1017500080B500F04DF844F2184146F2F873C5F632
:101760000201C9F200030A68C2F30322096801F00A
:101770000F019A5C595C02F01F0220FA02F201F09C
:101780001F0040F2040122FA00F0C2F2004108609A
:1017900040F20001C2F200410A6080BD000000007A
:1017A00080B5FFF7D5FF44F21C4146F2F872C5F64A
:1017B0000201C9F200020968C1F30211515C01F093
:1017C0001F01C84080BD000080B5FFF7C1FF44F293
:1017D0001C4146F2F872C5F60201C9F2000209681E
:1017E000C1F30221515C01F01F01C84080BD00001F
:1017F00044F20041C5F602010869C0F3C2000328A3
:101800000FD002282BD078BB0868800649F2000070
:10181000C0F2D03058BF70470968C1F3C101C84059
:1018200070478A6A886AC0F3051CCB6A486B03F06C
:101830000103BCF1000FC0F3CC0003FB00F000EE8D
:10184000100AB8EE400A14D002F00302022A12D0A5
:10185000A2B90868800614D49FED251A1EE047F649
:101860004000C0F27D10704740F60010C0F23D000D
:101870007047002070479FED1D1A0FE09FED1A1A68
:101880000CE0086849F20002C0F2D032C0F3C10097
:1018900022FA00F001EE100AB8EE411A02EE10CA68
:1018A0009FED144AB8EE422A086B6FF35F2003EEF7
:1018B000100A81EE021AB8EE433A086B00EE043AC1
:1018C000B7EE000AC0F34620013033EE000A21EEE5
:1018D000000A01EE100AB8EE411A80EE010ABCEED1
:1018E000C00A10EE100A70470024744A20BCBE4B98
:1018F0000024744C000000392DE9F041002800F06C
:101900005F810446007844F20046C007C5F602062F
:101910004AD0306900F03801B06A102905D0182982
:101920000AD100F00300022806D13068800337D5C1
:101930006068A8BB012726E065686DB1B5F5803FFA
:1019400006D0B5F5A02F306807D140F48020306074
:10195000306840F4803006E0306820F48030306039
:10196000306820F480203060FEF7DAFE002D054656
:1019700013D000BF3068800312D4FEF7D1FE401BA5
:101980006428F7D903270020002800F030820BE0FC
:10199000FEF7C6FE401B6428F4D830688003F7D4F5
:1019A0000120002800F023822078800768D5306964
:1019B00010F03801B06A18D0182908BF5FEA8070AB
:1019C00013D0E0683168C8B321F0190108433060D2
:1019D000FEF7A6FE054600BF306840071FD4FEF79D
:1019E0009FFE401B0228F7D936E03068400703D538
:1019F000E068002800F076813068E16820F0190086
:101A000008433060FEF78CFE054600BF3068400793
:101A100005D4FEF785FE401B0228F7D91CE0FEF72F
:101A200077FE41F2030188421CD820697168402882
:101A300021F47C311DD141F400301CE021F0010083
:101A40003060FEF76DFE05463068400714D5FEF79E
:101A500067FE401B0328F7D303270020002800F06F
:101A6000C6810DE07068216920F0FE4040EA016007
:101A700001E041EA003070600120002800F0B781E9
:101A80002078C00659D5306900F03801B06A0829BD
:101A900005D0182918D100F00300012814D13068AE
:101AA000C00502D5E069802842D1FEF731FE41F23F
:101AB000030188421BD8206A7168202821F0F84170
:101AC0002ED141F080402DE0E0690028306816D02A
:101AD00040F080003060FEF723FE05463068C00508
:101AE000E3D4FEF71DFE401B0228F7D916E0F0688C
:101AF000216A20F07C5040EA0160F06013E020F0A1
:101B000080003060FEF70CFE054600BF3068C0055F
:101B100009D5FEF705FE401B0328F7D3032708E08D
:101B200041EA806070600120002800F0608104E0DC
:101B300001270020002800F05A812078000743D4B4
:101B40002078800653D42078400764D4656A9DB31A
:101B5000306900F03800182840F0A480012DB16AE7
:101B6000306B2DD001F00302A36A9A4228D1C1F351
:101B70000511E26A914223D10146226B6FF35F2186
:101B8000013A91421CD1C0F34621626B013A914265
:101B900016D1C0F30641A26B013A914210D1C0F3B5
:101BA0000660E16B013988420AD1706BC0F3CC004A
:101BB000A16C814240F01E810027F8B2BDE8F0819F
:101BC0000127F8B2BDE8F08160690028706F38D055
:101BD00040F001007067FEF7A3FD0546706F8007B7
:101BE000AED4FEF79DFD401B0228F7D925E0A06981
:101BF0000028306845D040F480503060FEF790FDFA
:101C0000054600BF306880049DD4FEF789FD401B67
:101C10000228F7D911E0D6F8000440F48070C6F825
:101C20000004FEF77DFD0546D6F80004C00519D472
:101C3000FEF776FD401B6428F6D90327F8B2BDE80D
:101C4000F08120F001007067FEF76AFD054603276A
:101C5000706F80077FF574AFFEF762FD401B0228AE
:101C6000F6D9C4E0A568002D3ED0012D05D0052D84
:101C7000306F3AD140F004003067306F40F001001F
:101C800039E020F480503060FEF74AFD0546032716
:101C9000306880047FF557AFFEF742FD401B0228F5
:101CA000F6D9A4E0306820F080703060FEF738FD8F
:101CB000022D05464FF003070AD100BF30688001AE
:101CC00037D5FEF72DFD401B0228F7D98FE000BF66
:101CD000306880017FF570AFFEF722FD401B0228BF
:101CE000F6D984E00127B8E6306F20F001003067B4
:101CF000306F20F004003067FEF712FD002D05461E
:101D000041F288384FF003070FD000BF306F8007D3
:101D10003FF51CAFFEF704FD401B4045F6D966E0D9
:101D2000FEF7FEFC401B404561D8306F8007F7D4BA
:101D30000CE704F12807B06A40F2F33188438ECFF4
:101D40000843591E40EA02104FF47E42B06202EB93
:101D500047206FF35F214FF4FE0280B2E36B08442B
:101D6000A16B02EB01414FF0FE4201F4FE0102EBD8
:101D70000362084402F0FE4108443063F06A4FF603
:101D8000F87120F00100F062706BA26C884340EAA9
:101D9000C2007063F06A216C20F00C000843F0620E
:101DA000F06A616C20F002000843F062F06A40F4CF
:101DB0008030F062F06A40F40030F062F06A40F483
:101DC0008020F062F06A40F00100F062306840F07C
:101DD00080703060FEF7A4FC044603273068800161
:101DE0003FF5EAAEFEF79CFC001B0228F6D9F8B2DC
:101DF000BDE8F081F06A20F00100F062FEF790FC8F
:101E00000546FEF78DFCA842FBD0706B4FF6F871CB
:101E1000A26C8843002740EAC2007063F06A40F079
:101E20000100F062F8B2BDE8F0810000000000009F
:101E30002DE9F041002800F0BC80044643F600067E
:101E4000C4F2000643F20007256843F60048B54295
:101E5000C4F20107C4F200084FF00000A06204D0F1
:101E6000454518BFBD4240F0A080204600F0D4FD9B
:101E7000B54218BFBD4240F08B80102800F2998017
:101E800094F8810028B9002084F88000204600F0F2
:101E900093F8022084F881002068D4F818E00268E2
:101EA000BEF1806F22F00102026087680FD1626884
:101EB0002AB1B2F5800F0AD1A36B23B13AB9A26B54
:101EC000B2F1805F03D1026842F48052026063681D
:101ED00007F4F81713F4800C08D0E668072E05D332
:101EE0000668256D26F480762E4302E0066826F407
:101EF00080760660E669A56A47EA0607E66B47EA68
:101F0000050747EA0607D4E90285D4E9042145EA32
:101F100007058560656B43EA0E07666A47EA0507B1
:101F2000A56B47EA060747EA050742EA0702276A60
:101F300041EA0201E26C41EA0701A76C41EA0201B1
:101F4000A26D41EA080141EA070141EA0201C160CC
:101F50004BB98168012262F3CC2181608168022241
:101F600062F34A218160016DBCF1000F21F0010193
:101F7000016505D0C168626D21F000411143C16067
:101F80000020C4F88400012184F88110BDE8F081AC
:101F9000454518BF08280CD8B54218BFBD423FF4CC
:101FA0006CAF45453FF469AF6AE7E0680F287FF6FC
:101FB0005CAF0120BDE8F08170B5B8B0044641F2D5
:101FC000004502A8C02100263796CDE93566349633
:101FD000C5F600053396FEF74DFA2068A84201D0F9
:101FE00038B070BD4FF48040029002A803962E9640
:101FF000FEF77EFD08B1FEF7ABFA44F2E04033ACE9
:10200000C5F602000226416941F0200141614169A3
:1020100001F0200101910199016841F00101016085
:10202000016801F0010101910199016841F002018B
:1020300001600068214600F00200019001984FF411
:102040000040339001203496CDE9350607203790C3
:1020500005F5F630FEF784FA38202146CDE933063F
:102060000020CDE935060820379005F5F830FEF759
:1020700077FA38B070BD00002DE9F04F81B004460A
:1020800090F8800001281DD09B4615460F46D4F8D5
:102090000090012084F88000FEF742FB94F8811044
:1020A00001290CD127B1002D18BFBBF1000F0DD1B4
:1020B000002084F88000012001B0BDE8F08F0020EE
:1020C00084F88000022001B0BDE8F08F8046052032
:1020D00084F881000021C4F884104FF6FF73656610
:1020E000A4F86AB0A4F868B0E765A4F862B0206804
:1020F000A4F860B0216761676168C268B1F5800FBC
:1021000022F4C022C260426822EA03025A444260BA
:10211000026842F00101016003D1016841F40071DD
:102120000160E068DDF828A0102838D348F20805DF
:102130000AF101075E4600BF56EA0B0000F0B380CB
:102140002068BBF1000F416918BF11F002010BD0EC
:10215000E16D51F8042B0262E165B4F862100139B7
:10216000A4F86210B4F862B04169002E18BF11EAF9
:1021700005010BD0006B616E41F8040B6166B4F889
:102180006A000138A4F86A00B4F86A60FEF7C8FA79
:10219000002FD1D0A0EB08005045CDD370E00AF15C
:1021A0000105072834D95E4656EA0B007BD020682B
:1021B000BBF1000F416918BF11F002010CD0E16DB5
:1021C00031F8022BA9F82020E165B4F8621001393A
:1021D000A4F86210B4F862B04069002E18BF10F085
:1021E00001000CD0B9F83000616E21F8020B616675
:1021F000B4F86A000138A4F86A00B4F86A60FEF71F
:102200008FFA002DD0D0A0EB08005045CCD337E09A
:102210005F4600BF57EA0B0045D02068BBF1000FB6
:10222000416918BF11F002010DD0E16D097880F805
:102230002010E06D0130E065B4F862000138A4F8C8
:102240006200B4F862B02068002F416918BF11F035
:1022500001010DD090F83000616E0870606E0130A1
:102260006066B4F86A000138A4F86A00B4F86A70CD
:10227000FEF756FA002DCDD0A0EB08005045C9D38B
:10228000204600F06DFB002084F88000D4F8840024
:1022900040F48070C4F88400012084F88100032099
:1022A00001B0BDE8F08F20465146424600F018FCD0
:1022B00028B1D4F8840040F02000C4F884002046FF
:1022C00000F04EFB002084F88000012084F881009B
:1022D000D4F88400002818BF012001B0BDE8F08FB9
:1022E00080B500F019FC80BD90F88410012901D15F
:1022F000022070472421C0F8881002681368116812
:1023000023F0005321F001011160002141661360A8
:102310002022C0F8882080F884100846704700000A
:10232000B0B5044690F88400012801D10220B0BD68
:10233000012084F884002420C4F8880020680568FF
:10234000026822F001020260826822F0606211439A
:102350008160204600F094FD206805602020C4F8CC
:102360008800002084F88400B0BD00000000000058
:10237000B0B5044690F88400012801D10220B0BD18
:10238000012084F884002420C4F8880020680568AF
:10239000026822F001020260826822F0604211436A
:1023A0008160204600F06CFD206805602020C4F8A4
:1023B0008800002084F88400B0BD00000000000008
:1023C00010B5B0B10446D0F8880028B9002084F8D0
:1023D0008400204600F028F82420C4F888002068F3
:1023E000016821F001010160204600F071FE012822
:1023F00001D1012010BDA06A10B1204600F06CFD93
:102400002068416821F490414160816821F02A01EF
:102410008160016841F001010160204600F0CCFDBF
:1024200010BD000000000000B0B5B8B0044602A81E
:10243000C0210025CDE93655CDE934553395FEF759
:1024400019F841F200012068C4F20101884201D06C
:1024500038B0B0BD0120029002A803952195FEF787
:1024600047FB08B1FEF774F844F2E040C5F60200FD
:10247000016941F010010161016901F01001019150
:102480000199016841F001010160006833A900F081
:102490000100019001984FF4C06033900220349005
:1024A0000020CDE93500072037900020C5F6020056
:1024B000FEF756F838B0B0BD2DE9F04182B00446C1
:1024C000D0F8880020283FD10E4600294FF00100A7
:1024D0004BD01746002A48D01D464FF00008C4F8DC
:1024E00090802120C4F88800FEF71AF9A4F85470EF
:1024F000A4F856700746A168B1F5805F0FD1206936
:10250000002814BF3046B046064608E0206816F89A
:10251000011B8162B4F856000138A4F85600B4F8E3
:102520005600A8B18021002220463B46009501F0CC
:1025300093F8E8B9002EE9D138F8020B216800269B
:102540006FF35F208862E5E7022002B0BDE8F0810A
:102550004021002220463B46009501F07DF82021D5
:102560000028C4F8881018BF032002B0BDE8F0812D
:102570002020C4F88800032002B0BDE8F0810000EC
:1025800070B586B044F2E0400025C5F6020005951E
:10259000CDE90355CDE90155016840F6000441F04D
:1025A000040101600168C5F6020401F00401009114
:1025B0000099016841F0800101600168002201F08A
:1025C000800100910099016841F0010101600168FA
:1025D000022601F0010100910099016841F0020119
:1025E00001600068022100F002000090009820467F
:1025F000FEF786F801960120CDE9020501A92046E3
:102600000495FDF7ADFF06B070BD000000000000AE
:1026100010B540F2881441F20040C2F20044C5F601
:102620000000072120604FF4800060600020A0605F
:10263000C4E9031060614FF00051C4E90610C4E919
:102640000800C4E90A0004F134002821FDF712FF54
:102650002046FFF7EDFB002808BF10BDFDF778FF0F
:1026600010BD00000000000080B540F2102041F2D3
:102670000001C2F20040C4F201010C2201604FF4DB
:10268000E13141600021C0E902110161C0E9052189
:10269000C0E90711C0E90911FFF792FE08B1FDF783
:1026A00057FF40F210200021C2F20040FFF760FE09
:1026B00008B1FDF74DFF40F210200021C2F20040AA
:1026C000FFF72EFE08B1FDF743FF40F21020C2F2E3
:1026D0000040FFF709FE002808BF80BDFDF738FF66
:1026E00080BD000000000000FEE7000000000000C8
:1026F00000F007004FF0FF3C80F00703042B28BFD9
:102700000423033838BF00200CFA03F399430CFA72
:1027100000F301FA00F022EA0301084370470000C9
:10272000F0B581B044F22C47C5F6020757F8042CE7
:1027300002F00302032A02D1012001B0F0BD0546D8
:1027400057F82C0C0C4620F0806047F82C0CFDF755
:10275000E7FF064657F82C0C000105D5FDF7E0FF12
:10276000801B0228F6D964E057F8040CEE6895E85F
:102770000E0020F47C3040EA0130A2F101014FF458
:102780007E4247F8040C02EB43224FF0FE436FF306
:102790005F2192B202EB01004FF4FE012A6901EBC6
:1027A000064101F4FE0103EB0262084402F0FE411F
:1027B0000844F8603868696920F0C00040EA010008
:1027C00038603868A96920F0200040EA01003860CC
:1027D00038684FF6F87120F0100038603869EA69FF
:1027E00020EA010040EAC2003861386840F0100079
:1027F00038602CB1012C386806D140F4801005E017
:10280000386840F4002001E040F40010386057F8C8
:102810002C0C40F0806047F82C0CFDF781FF04463B
:1028200057F82C0C000107D4FDF77AFF001B032892
:10283000F6D3032001B0F0BD002001B0F0BD0000D0
:10284000F0B581B044F22C47C5F6020757F8042CC6
:1028500002F00302032A02D1012001B0F0BD0546B7
:1028600057F82C0C0C4620F0805047F82C0CFDF744
:1028700057FF064657F82C0C800005D5FDF750FF92
:10288000801B0228F6D964E057F8040CEE6895E83E
:102890000E0020F07C7040EA0150A2F101014FF4DB
:1028A0007E4247F8040C02EB43224FF0FE436FF3E5
:1028B0005F2192B202EB01004FF4FE012A6901EBA5
:1028C000064101F4FE0103EB0262084402F0FE41FE
:1028D000084478613868696920F4406040EA010082
:1028E00038603868A96920F4007040EA0100386057
:1028F00038684FF6F87120F480703860B869EA697A
:1029000020EA010040EAC200B861386840F48070F3
:1029100038602CB1012C386806D140F4000005E085
:10292000386840F4800001E040F08070386057F86B
:102930002C0C40F0805047F82C0CFDF7F1FE0446BB
:1029400057F82C0C800007D4FDF7EAFE001B032883
:10295000F6D3032001B0F0BD002001B0F0BD0000AF
:10296000016840F26F32D1F814C08B6943F008035C
:102970008B618B6943F010038B610B6823F00103BB
:102980000B600B6923EA02020A618A6822F4404262
:102990008A6090F881305FEA8C620BD5042B09D0F5
:1029A000D0F8842042F08002C0F884208A6942F086
:1029B00020028A6190F881305FEA4C620BD5032BCC
:1029C00009D0D0F8842042F00402C0F884208A693B
:1029D00042F040028A615FEA8C5209D5D0F8842027
:1029E00042F00102C0F884208A6942F400728A61D0
:1029F0005FEACC5209D5D0F8842042F00802C0F832
:102A000084208A6942F480728A610021A0F86210F1
:102A1000A0F86A1070470000C16B0122C06808303E
:102A200002EB5111C008484370470000000000004D
:102A300010B544F21704C0F2EF0400F02DF8A042E4
:102A400006D10EA0214602F0BBFC002040B210BD12
:102A5000014603A002F0B4FCFF2040B210BD00BF4D
:102A6000573235513634204552524F5221212121BF
:102A700021202049443A25580D0A0000573235518B
:102A80003634204F4B2C666C6173682049443A25DC
:102A9000580D0A000000000080B584B09F208DF81A
:102AA0000F0040F288100DF10F01C2F200400DF14D
:102AB0000B0204234FF47A7CCDF800C0FFF7DCFA58
:102AC00010B1012004B080BD9DF80C009DF80D10E0
:102AD0009DF80E20090241EA0040104404B080BD78
:102AE000F0B581B014460D4606464F1C306840696B
:102AF000000709D4FDF714FE002FF7D0001BA842F1
:102B0000F4D3032001B0F0BD002001B0F0BD0000FF
:102B10007047000000000000B0B501380024B4EB9D
:102B2000106F01D00120B0BD4EF210050F21CEF282
:102B3000000568604FF0FF3000F0FAFDAC60072040
:102B400028602046B0BD000080B502F0DDFB03F038
:102B50007BFA02F0E9FB80BD70B59CB044F6180426
:102B600040F22C4509A84C21C5F60204C5F6000523
:102B7000FDF780FC02200026CDE90766CDE9056659
:102B8000CDE90366CDE90166FDF752FE009628689F
:102B900020F001002860286800F001000090206803
:102BA00040F440402060206800F4404000900098CD
:102BB00020688004FCD54FF6DC40CFF6FF7021582A
:102BC00041F002012150205800F0020000900098CE
:102BD00000200090206840F440402060206800F40D
:102BE00040400090286840F001002860286800F00C
:102BF00001000090009800BF20688004FCD50120EF
:102C000009904FF480300A9002200521CDE912008E
:102C10001491C021CDE91510CDE9170009A80824A9
:102C200019940025CDE91A55FEF766FEA0B93F209C
:102C3000019003204FF48061CDE902050494402007
:102C4000CDE90500CDE9071001A80421FEF758FCE5
:102C5000002804BF1CB070BDFDF77AFC0000000026
:102C600044F20040C5F602000169C1F3C202032A22
:102C700011D840F60011C0F23D01DFE802F0026F0A
:102C8000161B016849F20002C0F2D032C1F3C10143
:102C900022FA01F162E0016849F20002C0F2D0328A
:102CA000C1F3C10122FA01F158E047F64001C0F238
:102CB0007D1153E0826A816AC1F3051CC36A416BCE
:102CC00003F00103BCF1000FC1F3CC0103FB01F1E0
:102CD00000EE101AB8EE400A14D002F00302022AE5
:102CE00012D0012A13D00168002A49F20002C1F370
:102CF000C101C0F2D03222FA01F101EE101AB8EE91
:102D0000411A06E0002129E09FED231A01E09FED22
:102D1000211A02EE10CA9FED214AB8EE422A016B39
:102D20006FF35F2103EE101A81EE021AB8EE433AF8
:102D3000016B00EE043AB7EE000AC1F346210131FF
:102D400033EE000A21EE000A01EE101AB8EE411A25
:102D500080EE010ABCEEC00A10EE101A826946F23B
:102D6000F873C9F20003C2F30322806900F00F0078
:102D70009A5C185CD14040F20402C2F2004200F0BA
:102D80001F0021FA00F0106040F20000C2F2004083
:102D9000016070470024744A20BCBE4B000000391B
:102DA00080B54EF6885C42F2000ECEF2000CC5F201
:102DB000002EDCF8001041F47001CCF80010DEF8B1
:102DC000001001F00F01062906D8DEF800100722D6
:102DD00062F30301CEF8001044F200414EF67F5337
:102DE000C5F60201CEF6F6230A6842F001020A6037
:102DF00000220A61086818400860DEF80000000739
:102E000006D5DEF80000072363F30300CEF80000C8
:102E100040F200208A61CA61C0F202200A62886220
:102E20000020C0F2FF10C86240F28020C0F2011002
:102E300008634A638863CA6308644A64086820F4C4
:102E40008020086041F200000A66C5F60040006874
:102E5000B2EB507F05D148F208100121C5F20010F5
:102E6000016044F2000043F2D201C5F2002001608B
:102E70004FF010404CF8800C80BD000000000000B6
:102E800010B5416E01B3016846F6201CC9F2000C72
:102E900046F6281E8A68C9F2000EC2F342628968AB
:102EA0004C0F1CF802301EF802101A011EF80430F4
:102EB000B2FBF1F11CF80420A0F868101201B2FB7B
:102EC000F3F2A0F86A2010BD0121A0F86A10A0F862
:102ED000681010BD00000000816ACA070CD18A0783
:102EE00015D44A071ED40A0727D4CA0630D48A0646
:102EF00039D44A0655D541E00268D0F82CC0536851
:102F000023F4003343EA0C0353608A07E9D50268CF
:102F1000D0F830C0536823F4803343EA0C03536085
:102F20004A07E0D50268D0F834C0536823F4802300
:102F300043EA0C0353600A07D7D50268D0F838C0BB
:102F4000536823F4004343EA0C035360CA06CED50A
:102F50000268D0F83CC0936823F4805343EA0C0322
:102F600093608A06C5D50268D0F840C0936823F400
:102F7000005343EA0C0393604A0612D50268D0F866
:102F800044C0BCF5801F536823F4801343EA0C034C
:102F9000536006D1536823F4C00C836C43EA0C03DE
:102FA0005360090658BF70470168C06C4A6822F434
:102FB0000022104348607047B0B582B0044600203C
:102FC000C4F89000FDF7ACFB2168054609680907C5
:102FD00019D54FF4001100226FF07E40009020467A
:102FE0002B4600F039FB70B1206850E8000F2168D3
:102FF00020F0800041E80002002AF5D12020C4F82A
:10300000880003202FE020680068400723D54FF494
:10301000800100226FF07E40009020462B4600F099
:103020001BFBC0B1206850E8000F216820F49070AD
:1030300041E80002002AF5D1206850E8020F21681B
:1030400020F0010041E80202002AF5D12020C4F856
:103050008C00032007E02020C4F88800C4F88C000E
:103060000020E0662067002184F8841002B0B0BD23
:10307000016851E8001F026821F4907142E80013D2
:10308000002BF5D14FF6FE7CCEF6FF7C026852E8AD
:10309000022F036802EA0C0243E802210029F5D15D
:1030A000C16E01290AD100BF016851E8001F026802
:1030B00021F0100142E80013002BF5D12021C0F8C7
:1030C0008C100021C16641677047000000000000BD
:1030D000F0B583B004460368806846F6F316D4E979
:1030E0000312104362691043E2691F68CCF6FF7651
:1030F000104307EA06021043186058684FF2FF4772
:1031000020F4405240F6004011435960C5F60000DB
:10311000A1698342C1F2FF171CBF226A11439A685A
:1031200047F2FF763A40C4F2000611439960DA6A2A
:1031300044F2544122F00F02676AC5F602013A4395
:10314000B342DA624FF0800225DD40F6FF77C4F229
:103150000107BB423FDD834200F0718041F200472E
:10316000C4F20107BB4200F0758041F20007C4F2CF
:103170000107BB4240F0A5800A68C2F3C203052BD9
:1031800000F296800122DFE813F09C009100950088
:10319000970099009B0044F6FF37C4F20007BB423A
:1031A00033DC44F20047C4F20007BB4200F05D800C
:1031B00044F60007C4F20007BB4240F082800A6870
:1031C00002F00703052B00F273800022DFE803F012
:1031D000796E7274767847F60007C4F20007BB4236
:1031E00000F04E8047F60047C4F20007BB4240F0B3
:1031F00068800A6802F00703052B00F2598000225C
:10320000DFE803F05F54585A5C5E44F60047C4F2AE
:103210000007BB4200F03F8045F20007C4F2000700
:10322000BB4240F04E800A6802F00703052B00F213
:103230003F800022DFE803F0453A3E4042444A68BE
:1032400002F00703052B33D80222DFE803F03A2F00
:10325000333537390A68C2F3C203052B28D8012257
:10326000DFE803F02F24282A2C2E0A6802F0070337
:10327000052B1DD80022DFE803F024191D1F212390
:103280000A6802F00703052B12D80022DFE803F0DA
:10329000190E121416180A6802F00703052B07D836
:1032A0000022DFE803F00E0307090B0D042208E0FB
:1032B000802206E0082204E0102202E0202200E042
:1032C00040222368834240F60010C0F23D0000F027
:1032D0005380E369B3F5004F40F07880402A00F254
:1032E0001A810025DFE812F04100120117011701D1
:1032F0001B011701170117011F0117011701170102
:1033000017011701170117012601170117011701EE
:1033100017011701170117011701170117011701ED
:1033200017011701170117013401170117011701C0
:1033300017011701170117011701170117011701CD
:1033400017011701170117011701170117011701BD
:1033500017011701170117011701170117011701AD
:10336000170117011701170131010025FEF718FA9F
:10337000002840F0EF8049E1931E1E2B00F274807C
:103380000027DFE813F01F0077007A00770077004E
:1033900077007E007700770077007700770077006E
:1033A0007700B80077007700770077007700770024
:1033B0007700770077007700770077007700770055
:1033C000770083000027FDF757FA5FE0402A00F2FC
:1033D000E6800025DFE812F04100DE00E300E300B4
:1033E000E700E300E300E300EB00E300E300E300B9
:1033F000E300E300E300E300F200E300E300E300A6
:10340000E300E300E300E300E300E300E300E300A4
:10341000E300E300E300E3000001E300E300E30076
:10342000E300E300E300E300E300E300E300E30084
:10343000E300E300E300E300E300E300E300E30074
:10344000E300E300E300E300E300E300E300E30064
:10345000E300E300E300E300FD000025FEF7A0F930
:10346000002840F0BA80D1E0402A03D14FF4004058
:1034700000270BE00020012708E06846FDF710FA5E
:1034800002E06846FDF7A0FA0027019878B3616A68
:1034900046F60802C9F200026668012532F81120DA
:1034A00006EB4603B0FBF2F19942C0F0AF80330364
:1034B000994200F2AB8000210023FCF7A3FF090230
:1034C000002341EA10613246000210EB560041F140
:1034D0000001FCF797FF4FF6FF42A0F54071C0F2E4
:1034E0000F02914205D821683D46C8608EE03D46F6
:1034F0008CE001258AE051F8540C800649F2000066
:10350000C0F2D03000F18B800027BFE70025FEF726
:103510005BF9F8B97AE000200125D8B976E0684671
:10352000FDF7BEF902E06846FDF74EFA0025019866
:1035300080B96BE051F8540C800649F20000C0F2EB
:10354000D03073D4002528B960E04FF40040002546
:1035500000285BD0616A46F60802C9F2000232F820
:1035600011106268B0FBF1F0510801EB4000B0FBB4
:10357000F2F0A0F110014FF6EF72914208D84FF629
:10358000F071C0F34202236808401044D8603DE067
:1035900001253BE00025FEF717F9F0B936E00020E1
:1035A0000125D0B932E06846FDF77AF902E06846B5
:1035B000FDF70AFA0025019878B927E051F8540C74
:1035C000800649F20000C0F2D03039D4002520B97D
:1035D0001CE04FF400400025C0B1616A46F60802C5
:1035E000C9F2000232F811106268B0FBF1F000EB92
:1035F0005200B0FBF2F0A0F110014FF6EF729142D1
:1036000003D8216880B2C86000E001254FF00110A6
:10361000A0660020C4E91D00284603B0F0BD51F8A3
:10362000541C0027C1F3C101C8402FE751F8541CB6
:103630000025C1F3C101C84000287FF48BAFE5E746
:1036400051F8541C0025C1F3C101C8400028C4D161
:10365000DCE70000000000002DE9F04381B00446E3
:103660000068C0690840401AB0FA80F040099042F2
:1036700039D1DDF820800D461646994608F101073C
:1036800009E000BF2068C0692840401BB0FA80F004
:103690004009B0422BD1002FF4D0FDF741F8B8F12A
:1036A000000F01464FF0030022D0A1EB0901414574
:1036B0001ED8206801684907E4D5C16909071AD4F2
:1036C000C1690905DED54FF4006101622046FFF7AC
:1036D000CFFC2020C4F89000002084F88400032050
:1036E00001B0BDE8F083002001B0BDE8F083002008
:1036F00001B0BDE8F083082505622046FFF7B8FC5D
:10370000C4F89050002084F88400012001B0BDE886
:10371000F083000000000000FEE700000000000051
:103720004EF60C50CEF200000068C0F30220704745
:103730004EF6145300F00F02CEF20003B0F1FF3F3B
:103740001A4400F16043C8BF03F5644208011070D9
:1037500070470000000000004EF60C514FF6FF03CA
:10376000CEF200010A681A4060F30A2242F080603B
:1037700040F0FD700860704718B1C1B219B1012066
:103780000FE00020704710F47F4102D0090A0920A1
:1037900007E010F47F0102D0090C112001E0010EB6
:1037A000192046F62002C9F20002515C0844704715
:1037B00044F24400C2F200400168081A18BF012018
:1037C0007047000000000000F0B589B014460D46B7
:1037D0000646002103E000BF8D4220D00131705C1D
:1037E000092818BF2028F7D1E1B1304601F0ACF824
:1037F000C0B107460020CDE90700CDE90500CDE9BD
:103800000300CDE9010001AA3046294601F01CF968
:1038100040B101A9B8472060002009B0F0BD294699
:103820000029E2D14FF0FF3009B0F0BD00000000E8
:103830002DE9F04782B0044614301D4616460F4667
:10384000DDF83090DDE90A8A01F0DEFD232128460B
:103850004246C4E90876C4E90A5801F045FFD4E9B4
:103860000A120A4445F62153206A616A043AC9F2F1
:10387000000301F025FD45F67972E06184F836A079
:10388000002184F835A004F14400C4E90E19C4F8FD
:103890004090C9F200022163234684F83410C4E941
:1038A0001C1100910191214602F07EFC02B0BDE89E
:1038B000F08700000000000080B5DDF808C00CF0C3
:1038C000FE0C80F809C0C0E907120021C0E90931E7
:1038D000143001F09DFD80BD80B5143001F01CFE58
:1038E00080BD000000000000B0B50446FCF7F0FC0D
:1038F000216F054609B1204688472846FCF7ECFCB5
:10390000B0BD00000000000010B54EF629541CA008
:10391000CEF2000401F054FD21781CA001F050FD0E
:103920002078C00702D01FA001F04AFD2078800750
:1039300002D51FA001F044FD2078400702D51FA04A
:1039400001F03EFD2078000702D520A001F038FDEF
:103950002078C00602D520A001F032FD94F90000C5
:10396000B0F1FF3F06DD46F62350C9F2000001F03A
:1039700027FD10BDD4F80F1019A001F021FD10BDD6
:10398000627573206661756C743A0A005343425F36
:10399000434653525F424653523A307825303258AC
:1039A00020000000494255534552522000000000BB
:1039B000505245434953455252200000494D505200
:1039C000454349534552522000000000554E535480
:1039D0004B4552522000000053544B455252200098
:1039E0005343422D3E424641523A253038580A0050
:1039F00080B502A001F0E4FC002080BD1B5B324AD0
:103A00001B5B48000000000080B500F021FC002096
:103A100080BD00000000000080B500F0F1FC002037
:103A200080BD0000000000000A2903680BD14CF69D
:103A3000CD41CCF6CC41A3FB0112D20802EB8201AE
:103A4000A3EB410102E003F00F011A0902600846EE
:103A5000704700000000000010B544F26420C2F27C
:103A60000040006890F82100800706D440F258001A
:103A70000021C2F20040017034E040F25C10C2F25A
:103A80000040016841B140F258004FF48072C2F228
:103A90000040FCF7FAFC25E000F0D2FF50B140F204
:103AA00058000021C2F20040017147F26D31C2F2AC
:103AB00068010DE040F2580046F67301C2F2004082
:103AC000C0F22001C0F8031046F66611C7F26E314D
:103AD00040F258040160C2F200442046FCF7E1FCC9
:103AE0003E21215240F25800C2F2004010BD0000B9
:103AF00080B501F0C1FA80BD44F2642100F00100FC
:103B0000C2F20041096891F8212002F0FD0242EA68
:103B1000400081F82100704740F25002C2F200429A
:103B2000106040F25400C2F2004001607047000093
:103B300070B582B046F6485046F62C61C9F20000D6
:103B4000C9F20001FFF7E8FF0120782101F044F9F4
:103B500044F26426C2F200463060F0B143F6D93137
:103B60001520009011A0C9F2000100224FF48063DB
:103B70000A250195002402F0AFF8054630680DA132
:103B80000022002301F0F4FE0120FFF7B5FF4DB144
:103B9000284602F0B5F9002404E008A001F010FC6A
:103BA0004FF0FF34204602B070BD00BF74736865EB
:103BB0006C6C000073687278000000006E6F206DFE
:103BC000656D6F727920666F72207368656C6C0A20
:103BD000000000000000000044F26429C2F2004925
:103BE000D9F8000090F8211041F0010180F821106F
:103BF000FFF732FF40F25804C2F20044204601F0C1
:103C0000DFFB46F68D4646F623574FF001084FF08E
:103C1000000AC9F20006C9F200074FF0020B01E0EA
:103C200080F82080FFF764FF0028FBD405461B289E
:103C3000D9F80000F4D090F82010022908D001290A
:103C400040F071805B2D40F06C8080F820B0E9E797
:103C5000A5F1410180F820A00229E3D3442D00F210
:103C60008E80DFE815F04500D000D000D000D000F5
:103C7000D000D000D00091000C016C00D000D0002A
:103C80006C00D000D000D000D000D000D000D00018
:103C9000D000D000D000D000D000D000D000D000A4
:103CA000D000D000D000D000D000D000D000D00094
:103CB000D000D000D000D000D000D000D000D00084
:103CC000D000D000D000D000D000D000D000D00074
:103CD000D000D000D000D000D000D000D000D00064
:103CE000D000D000D000D000D000D0004600590154
:103CF00098E7B0F87410B0F872209142BFF492AF18
:103D0000084490F8221046F68F40C9F2000001F0F6
:103D100057FBD9F80000B0F874100131A0F8741006
:103D200080E780F820A00D2D29D8DFE805F0076C8A
:103D30006C6C6C6C6C6C2DA8086C6C0872E700F0F5
:103D40007FFE01280FD1D9F8000090F82100C007AC
:103D500002D0384601F034FBD9F80000B0F87210F8
:103D6000223000F0B9FDFFF777FE204601F028FB76
:103D7000D9F8000054212230FCF77CFB52E7FF2DDC
:103D80003FF450AF7F2D3ED1B0F8741000293FF4BE
:103D900049AFB0F8722001398BB2A0F87410551EEB
:103DA000A0F87250AAB29A4240F2AB80C118D21A5F
:103DB00001F12200233101F073FCD9F80000B0F8C2
:103DC0007210084480F822A0D9F80000B0F87410EE
:103DD000084400F1220159A001F0F2FAD9F80010CC
:103DE000B1F87400B1F8721088423FF61BAF451E5F
:103DF000304601F0E5FAD9F800000135B0F872005C
:103E00008542F5D30EE7B0F87210502928BFA0F80C
:103E100072A0B0F87430B0F872209A424ED9C1182E
:103E2000D21A01F12300223101F03AFCD9F8000046
:103E3000B0F87410084480F82250D9F8000090F8C7
:103E40002110C90707D0B0F87410084400F122010E
:103E50003CA001F0B5FAD9F80000B0F87450B0F801
:103E6000720085423AD200BF304601F0A9FAD9F873
:103E700000000135B0F872008542F5D32EE0D9F884
:103E80000000B0F8741059B1002500BF304601F0B1
:103E900097FAD9F800000135B0F874108D42F5D3C7
:103EA000223002F0A5FBD9F8005005F12200FCF702
:103EB000F8FAA5F87200A5F87400B3E6104480F88B
:103EC0002250D9F8000090F82100C00706D046F62D
:103ED0008F402946C9F2000001F072FAD9F80000BB
:103EE000B0F87210B0F874300131A0F872108AB2D4
:103EF000591C502AA0F87410FFF494AEC0F872A0B8
:103F000090E60DA001F05CFAD9F80000B0F872104C
:103F1000084480F822A085E6B0F8740000283FF439
:103F200081AE304601F04CFAD9F80000B0F87410B8
:103F30000139A0F8741075E60820080008257320E0
:103F4000200800002573000080B5FEF719FB002053
:103F500080BD00000000000010B54EF62C54CEF2DB
:103F600000042068800702D50EA001F029FA20681D
:103F700040000ED514F8030C08B1FFF7C5FC14F887
:103F8000040C08B100F0DCFB34F8020C08B102F0BC
:103F9000B3FB2068B0F1FF3FC8BF10BD07A001F020
:103FA0000FFA10BD6661696C656420766563746F95
:103FB000722066657463680A0000000064656275BB
:103FC00067206576656E740A00000000000000003E
:103FD00080B502A001F0F4F9002080BD48656C6C4A
:103FE0006F2052542D546872656164210A000000EC
:103FF0002DE9F04114A001F0E3F940F2500040F245
:104000005407C2F20040C2F2004705683868854292
:1040100016D212A40FF2480804E000BF0C3538682D
:1040200085420DD22E68022230462146FCF740FA26
:104030000028F3D06A684046314601F0C1F9EDE747
:104040000020BDE8F08100BF2D2D46756E637469B8
:104050006F6E204C6973743A0A0000005F5F0000C5
:10406000252D313673202D2D2025730A00000000E8
:1040700070B50646084614460D4601F0B5FB35728C
:104080000430C6E900040820F0600020306170BDF3
:10409000F0B581B00D46C9684FF000042C6149B3FA
:1040A0000646287AD8B12F683446002E08BF3C4611
:1040B000FCF70EF936B114F8041C2A7A01F07F01DE
:1040C000914214D16A6800212468BC4209D04E1C78
:1040D000EB689E4242F821403146F5D103E00024CE
:1040E00008E000240E46FCF7F7F82E6102E0FCF72A
:1040F000F3F80024204601B0F0BD000000000000ED
:104100002DE9F04F93B00DF118090EA805214A468C
:10411000FFF7AEFF2FA038A2082101F051F900F0FF
:1041200017FD37A001F04CF9002002E004980028A8
:104130004BD00EA9FFF7ACFF129904900129F5DBD3
:104140009DF840B04FF0000A129F05970EE000BFA7
:10415000CDE9005408210822029030A03B4601F02E
:104160002FF9059F0AF1010ABA45DFDA59F82A400A
:10417000FCF7AEF814F8041C01F07F05FCF7ACF86E
:104180005D45EFD104F10806A4F10C07304601F0BB
:104190008FF9E58A8046A48A304601F091F9B8F19A
:1041A000000FD5D1CDE9005408210822029021A0AA
:1041B0003B4601F005F9304602F03AFA46F6235044
:1041C000C9F2000001F0FCF8CBE7002013B0BDE815
:1041D000F08F00BF252D2A2E7320656E7472792012
:1041E00073697A652073757370656E642074687284
:1041F0006561640A000000006D61696C626F78009F
:10420000202D2D2D2D20202D2D2D2D202D2D2D2D12
:104210002D2D2D2D2D2D2D2D2D2D0A00252D2A2E28
:104220002A7320253034642020253034642025640E
:104230000A000000252D2A2E2A7320253034642000
:1042400020253034642025643A000000000000007E
:1042500080B540F22430C2F20040016809A001F0AC
:10426000AFF844F26820C2F2004001680AA001F0F1
:10427000A7F840F22030C2F2004001680BA001F024
:104280009FF880BD746F74616C206D656D6F72797D
:104290003A2025640A00000075736564206D656D21
:1042A0006F7279203A2025640A0000006D617869F8
:1042B0006D756D20616C6C6F6361746564206D65F4
:1042C0006D6F72793A2025640A000000000000003A
:1042D0002DE9F04F91B004AD0CA802212A46FFF75A
:1042E000C7FE2EA034A2082101F06AF800F030FCCD
:1042F00034A001F065F8002003E000BF0398002817
:1043000047D00CA9FFF7C4FE109903900129F5DBF3
:104310009DF838904FF0000ADDF840B00CE000BF87
:104320000821082201902DA03B46009401F048F896
:104330000AF1010ADA45E1DA55F82A40FBF7C8FF2D
:1043400014F8041C01F07F06FBF7C6FF4E45EFD1C1
:1043500004F10806A4F10C07304601F0A9F8248AFC
:104360008046304601F0ACF8B8F1000FD8D10821F2
:10437000082201901DA03B46009401F021F8304630
:1043800002F056F946F62350C9F2000001F018F881
:10439000CEE7002011B0BDE8F08F00BF252D2A2EFA
:1043A00073207620202073757370656E64207468A6
:1043B000726561640A00000073656D6170686F72F8
:1043C00065000000202D2D2D202D2D2D2D2D2D2D86
:1043D0002D2D2D2D2D2D2D0A00000000252D2A2EEE
:1043E0002A7320253033642025640A00252D2A2EC7
:1043F0002A7320253033642025643A000000000031
:104400002DE9F04F91B004AD0CA801212A46FFF729
:104410002FFE46F6154036A2C9F20000082100F032
:10442000CFFF00F095FB34A000F0CAFF0020642607
:1044300049A702E00398002855D00CA9FFF728FEF1
:10444000109903900129F5DB9DF838804FF0000AA0
:10445000DDF8409006E000BFFBF73EFF0AF1010ADD
:10446000CA45E7DA55F82AB0FBF732FF1BF8041CFF
:1044700001F07F014145EFD1ABF10C04FBF72CFFBC
:104480009BF829000821082200902BA0234600F069
:1044900097FF9BF8280000F00F01042906D840F38D
:1044A000030028A151F8200000F08AFFDBF81C006F
:1044B000013800BF10F8011F2329FBD0DBE90712E8
:1044C000101ADBF82440084411447043B0FBF2F3A7
:1044D000DBF81000091ADBF83400CDE90004384697
:1044E00000F06EFFBAE7002011B0BDE8F08F00BF0A
:1044F0007468726561640000202D2D2D20202D2D03
:104500002D2D2D2D2D202D2D2D2D2D2D2D2D2D2DE8
:10451000202D2D2D2D2D2D2D2D2D2D20202D2D2DF2
:104520002D2D2D20202D2D2D2D2D2D2D2D2D2D20E2
:104530002D2D2D0A00000000252D2A2E2A7320255E
:1045400033642000596C00906B6C0090746C009088
:104550007D6C0090626C0090203078253038782097
:1045600030782530387820202020253032642525E9
:1045700020202030782530387820253033640A0018
:104580002DE9F04F91B004AD0CA80A212A46FFF79F
:104590006FFD29A032A2082100F012FF00F0D8FA26
:1045A00031A000F00DFF46F60A4B0020C9F2000BC7
:1045B00002E000BF0398A0B30CA9FFF769FD1099B2
:1045C00003900129F6DB9DF838600024DDF8408077
:1045D00003E000BF01344445ECDA55F82490FBF7C2
:1045E00077FE19F8041C01F07F0AFBF775FEB2454F
:1045F000F0D1A9F10C030821D9E90607009008229F
:1046000022A0019700F0DCFE19F8030C46F60841E1
:10461000C9F20001C007584608BF084600F0D0FEA6
:10462000D8E701F009FD01461EA000F0C9FE0020F8
:1046300011B0BDE8F08F00BF252D2A2E7320207009
:104640006572696F64696320202074696D656F7598
:104650007420202020202020666C61670A00000062
:1046600074696D6572000000202D2D2D2D2D2D2DCE
:104670002D2D2D202D2D2D2D2D2D2D2D2D2D202D84
:104680002D2D2D2D2D2D2D2D2D2D0A00252D2A2EB4
:104690002A732030782530387820307825303878E3
:1046A0002000000063757272656E74207469636B1C
:1046B0003A3078253038780A000000000000000009
:1046C00040F2000040F60004C2F20040C5F60204C9
:1046D00001684DF68360C4F21B30A1FB00020CA000
:1046E000920C00F06DFE00BF022100222046FCF774
:1046F00007F84FF47A7001F0ABFB0221012220464B
:10470000FBF7FEFF4FF47A7001F0A2FBECE700BF6D
:1047100053797374656D436F7265436C6F636B3A65
:1047200020256420487A282564294D487A200A00EB
:1047300080B500F079FBFFF7C3FF80BD00000000EB
:1047400010B54EF6285419A0CEF2000400F038FE41
:1047500021781BA000F034FE2078C00702D01EA0F4
:1047600000F02EFE2078800702D51EA000F028FE63
:104770002078000702D51EA000F022FE2078C00697
:1047800002D51EA000F01CFE94F90000B0F1FF3F1E
:1047900006DD46F62350C9F2000000F011FE10BD00
:1047A000E16819A000F00CFE10BD00BF6D656D2022
:1047B0006D616E616765206661756C743A0A000010
:1047C0005343425F434653525F4D4653523A30780B
:1047D00025303258200000004941434356494F4C90
:1047E000200000004441434356494F4C2000000044
:1047F0004D554E53544B4552522000004D53544B8F
:1048000045525220000000005343422D3E4D4D4181
:10481000523A253038580A002DE9F04F81B004464D
:104820000078002842D040F2500040F2540BC2F20F
:104830000040C2F2004B0768DBF8000087423AD222
:1048400046F6864A0025C9F2000A0FF288084FF0A2
:10485000000910E04846314601F032FFA8423146D7
:10486000B8BF0546404600F0ABFD00BF0C37DBF893
:104870000000874222D23E68062230465146FBF7AE
:1048800017FE0028F2D120460636FBF70AFE024644
:1048900020463146FBF70CFE0028E7D1002DD9D188
:1048A0003046FBF7FEFD0546B146D3E700F080F841
:1048B00001B0BDE8F08F4FF000090025B9F1000FFD
:1048C00004D0204649462A4601F02EF901B0BDE841
:1048D000F08F00BF25730A0010B582B009B30446FB
:1048E00004E000BF013904F101041AD02078202827
:1048F000F8D00928F6D001AA2046FEF765FF98B146
:10490000A01E00BF8178013011F0DF0FFAD1002125
:10491000417007A0214600F053FD4FF0FF3002B078
:1049200010BD002002B010BD019802B010BD00BF44
:1049300025733A20636F6D6D616E64206E6F742015
:10494000666F756E642E0A002DE9F04740F2500341
:1049500040F25402C2F20043C2F200421D681368E2
:104960009D4222D246F686468A46804601F10609D5
:104970001468C9F2000602E00C35A54215D22F6872
:10498000062238463146FBF793FD0028F4D1B81DC6
:1049900041465246FBF78CFD0028EDD117F809007F
:1049A0000028E9D1A868BDE8F0870020BDE8F087BD
:1049B0002DE9F04118A000F003FD40F2500040F254
:1049C0005407C2F20040C2F20047056838688542C9
:1049D00018D246F686440FF25C08C9F2000403E0E0
:1049E0000C35386885420DD22E68062230462146A5
:1049F000FBF75EFD0028F3D1B11D6A68404600F068
:104A0000DFFCEDE746F62350C9F2000000F0D8FCC9
:104A10000020BDE8F08100BF52542D5468726561DA
:104A200064207368656C6C20636F6D6D616E647378
:104A30003A0A0000252D313673202D2025730A00F7
:104A400001207047000000002DE9F0410029904648
:104A50004FF000024FF000044ED0002605E000BFEA
:104A60008E4209D200F8012C0136013010F8013CC9
:104A7000202BF5D0092BF3D0082C40D28E423BD20C
:104A8000222B27D148F82400731C077800258B427D
:104A900004F1010438BF0125222F0FD165B300F8BE
:104AA000012B023626E000BF10F8017F1E460133BD
:104AB00000258B4238BF0125222FEFD08B42EDD24B
:104AC0005C2FF1D1074617F8015F222D04BFB31CFC
:104AD0003846E9E7013848F8240001340378092B07
:104AE00018BF202B04D08E4202D201300136F5E7E8
:104AF0008E4201D28E42B8D32046BDE8F0810BA091
:104B000000F05EFC002511A658F82510304600F094
:104B100057FC0135A542F7D346F62350C9F20000F1
:104B200000F04EFC2046BDE8F08100BF546F6F20BE
:104B30006D616E7920617267732021205765206F47
:104B40006E6C79205573653A0A00000025732000C9
:104B5000B0B56FF0070503A4204600F031FC013525
:104B6000FAD3B0BD2D00000080B540F26411426858
:104B7000C2F2004109680A44824218D05388B3B98E
:104B800040F26013C2F200431B689A420FD040F219
:104B90001C3CC2F2004CDCF80030934208BFCCF859
:104BA0000000536843605268431A0A449360D0F887
:104BB00008E001EB0E03834208BF80BD5A8802B1B2
:104BC00080BD40F21C3CC2F2004CDCF80020824266
:104BD00008BFCCF8003042685A6040680844C0F80A
:104BE00008E080BD000000002DE9F04F87B0DDF83F
:104BF00048A046F6E63B5FEA4A6746F6F737C9F251
:104C00000007C9F2000B58BFBB465FEACA671E46E1
:104C100048BF2AF0010A0D4604465FEACA774FF002
:104C2000300708BF2027069200975FEA8A7701D4F1
:104C300000200EE0B2F1FF3F06DD5FEA4A7007D4C4
:104C4000202000EA8A0004E0504206902D2000E077
:104C50002B2001900698B0B10698C8B14FF000091A
:104C600006AF0DF1080800BF38463146FEF7DCFEFE
:104C70001BF80010069A09F10100002A08F8091033
:104C80008146F1D105E030208DF80800012000E0D8
:104C90000020119E109B3246B042C8BF02461AF057
:104CA000110FA3EB020105D0DDF804C0BCF1000F29
:104CB00023D129E0DDF804C00027E646BCF1000F4F
:104CC00018BF4FF0010E0029C8BF012707EA0E07E1
:104CD000C91B012958DB794219442023891A00BFD6
:104CE0000139AC4238BF2370002904F10104F7DC1C
:104CF0004FF0FF31BCF1000F06D0AC42A1F1010131
:104D000038BF84F800C001345FEACA630CD40129BB
:104D100036DB009B0139AC4238BF2370002904F117
:104D20000104F7DC4FF0FF31B04209DA302300BF55
:104D3000013AAC4238BF2370904204F10104F7DB22
:104D40006EB101280BDB02AA013A00BFAC4201D2CE
:104D5000135C237004F101040EB10138F6DC012963
:104D60000ADB481C202100BF0138AC4238BF21704B
:104D7000012804F10104F7DC204607B0BDE8F08FFC
:104D80000139B042D2DBDBE70139BCF1000FB4D10D
:104D9000BAE700000000000080B500F0B1F980BD66
:104DA00080B582B044F231710A20009007A0C9F2A8
:104DB000000100224FF400734FF0140CCDF804C032
:104DC00000F08AFF01F09CF802B080BD6D61696E51
:104DD0000000000000000000B0B501FB00F4204618
:104DE00000F0A2FB054620B100212846224600F033
:104DF0007BFC2846B0BD0000B0B546F63C5446F6F4
:104E00002C50C9F20004C9F20000A04228BFB0BD76
:104E100046F62C55C9F2000555F8040B8047A5420B
:104E2000FAD3B0BD00000000B0B546F6445446F6D3
:104E30003C50C9F20004C9F20000A04228BFB0BD36
:104E400046F63C55C9F2000555F8040B8047A542CB
:104E5000FAD3B0BD0000000080B5FBF739FA44F288
:104E60004001C2F200410A8801320A80FBF734FA9D
:104E700080BD00000000000080B5FBF729FA44F275
:104E80004001C2F200410A88013A0A8013B2002BA5
:104E900002DDFBF721FA80BD00220A80FBF71CFA35
:104EA00040F22C30C2F200400068002808BF80BDEC
:104EB00000F0D6FC80BD000070B500284CD040F258
:104EC00064160446C2F200463068A04244D840F25C
:104ED0006010C2F200400068A04298BF70BD40F26E
:104EE00068104FF0FF31C2F20040A4F10C0500F051
:104EF00077FD34F80A0C18B12888B0F5F55F0AD0B0
:104F000016A000F05DFA34F80A2C1BA034F80C3C13
:104F1000294600F055FA4FF4F55044F80C0C40F2D5
:104F20001C3044F26822C2F20040C2F20042016822
:104F3000A94288BF056054F8080C3168281A136824
:104F4000401A184410602846FFF70EFE40F2681021
:104F5000C2F2004000F01CFD70BD00BF746F2066FF
:104F60007265652061206261642064617461206201
:104F70006C6F636B3A0A00006D656D3A20307825DE
:104F80003038782C207573656420666C61673A2030
:104F900025642C206D6167696320636F64653A2026
:104FA0003078253034780A0040F23430C2F20040C4
:104FB000704700000000000040F23430C2F20040B0
:104FC00000F570507047000070B54EF61450CEF2E8
:104FD00000000168890312D4BFF34F8FBFF36F8FB6
:104FE0000021C0F83C12BFF34F8FBFF36F8F0168F1
:104FF00041F400310160BFF34F8FBFF36F8F016841
:10500000C90327D400210167BFF34F8FC26E43F657
:10501000E07CC2F34E31C2F3C90202F1010E9207E5
:105020000CEA41141346754643EA0406013D03F1B8
:105030004043C0F84C62F7D10029A1F10101EFD142
:10504000BFF34F8F016841F480310160BFF34F8F90
:10505000BFF36F8FFBF768FBFDF77EFDFDF700FEEA
:10506000FFF7CAFEFFF7A0FF0446FFF7A5FF0146C2
:10507000204600F075FD70BD80B540F21020C2F2F0
:1050800000400068C169890605D40A2000F0E0FEEE
:10509000FF20C0B280BD406AC0B280BD00000000E9
:1050A000F0B581B004460D208DF8030040F21020C9
:1050B000C2F20040002180F88410204600F02CFD50
:1050C000E0B140F210260546C2F200460DF103079A
:1050D0000AE000BF0122012330462146FDF7ECF92A
:1050E000013D04F1010409D020780A28F2D10122FF
:1050F000012330463946FDF7DFF9EBE701B0F0BD9B
:105100004EF60C500421CEF20000C0F2FA510160BC
:10511000704700000000000010B540F23031044636
:10512000C2F20041096829B104F12800884700282B
:1051300008BF10BD46F61850616CC9F2000000F0BF
:105140003FF946F6D740A16AC9F2000000F038F9ED
:1051500046F6E440E16AC9F2000000F031F946F693
:10516000F140216BC9F2000000F02AF946F6FE403A
:10517000616BC9F2000000F023F946F60B50A168FC
:10518000C9F2000000F01CF9E16824A000F018F951
:10519000216926A000F014F9616928A000F010F937
:1051A000A1692AA000F00CF9E1692CA000F008F92F
:1051B000216A2EA000F004F9616A30A000F000F925
:1051C000A16B32A000F0FCF8E16B34A000F0F8F81D
:1051D000216C36A000F0F4F82078400706D446F69B
:1051E0009240C9F2000000F0EBF80AE000F058FE2F
:1051F000014646F6AC40C9F2000000F0E1F8FFF7C6
:10520000FFF82078C00605D446F6C940C9F2000070
:1052100000F0D6F8FEF7A0FEFEE700BF7230353A88
:10522000203078253038780A000000007230363A95
:10523000203078253038780A000000007230373A84
:10524000203078253038780A000000007230383A73
:10525000203078253038780A000000007230393A62
:10526000203078253038780A000000007231303A5A
:10527000203078253038780A000000007231313A49
:10528000203078253038780A000000007231323A38
:10529000203078253038780A00000000206C723AFF
:1052A000203078253038780A000000002070633AFA
:1052B000203078253038780A000000000000000017
:1052C00070B504324BF6EF6422F0070E8446AEF15F
:1052D00044006FF04702CDF6AD6400BF0EEB02054F
:1052E0000432161D6C60F9D14EF8201C00214EE9E5
:1052F00007114EE905114EE9033C4FF080724EF85C
:10530000042C4EF8441C70BD80B5FAF7E1FF43F65B
:105310003871C2F200410A7801320A70FAF7DCFFF4
:1053200080BD00000000000080B5FAF7D1FF43F611
:105330003871C2F200410A78013A0A70FAF7CCFFDC
:1053400080BD00000000000080B50068143800F047
:1053500087FD80BD0000000070B504460846164673
:105360000D4600F0E5FDE6B1012E19D1264600BF3D
:105370003668A6420FD095F8350096F8211088427D
:10538000F6D2A6F1140005F11401143000F060F813
:10539000A64218BF70BD05F11401204600F058F870
:1053A00070BD05F11401204600F052F870BD0000F8
:1053B00080B5143000F020F880BD0000000000002F
:1053C00083B010B581B043F64074C2F20044CDE919
:1053D00003120246059303ABFF212046009300F021
:1053E00057FF2046FFF75CFE01B0BDE8104003B058
:1053F0007047000000000000C0E900007047000096
:10540000C0E9000070470000C0E9000070470000DC
:10541000C0E900007047000002680A600160516046
:10542000486070470000000044F24401C2F20041AD
:105430000A68026008605060416070470000000028
:1054400002680A6001605160486070470000000017
:1054500042684A60416011600860704700000000C7
:1054600042684A60416011600860704700000000B7
:1054700042684A60416011600860704700000000A7
:105480000168081AB0FA80F0400970470000000077
:105490000168081AB0FA80F0400970470000000067
:1054A0000168081AB0FA80F0400970470000000057
:1054B0000168081AB0FA80F0400970470000000047
:1054C00001464FF0FF300A46126801308A42FBD194
:1054D0007047000000000000D0E900124A604268F6
:1054E0001160C0E900007047D0E900124A604268CC
:1054F0001160C0E900007047D0E900124A604268BC
:105500001160C0E900007047D0E900124A604268AB
:105510001160C0E900007047D0E900124A6042689B
:105520001160C0E9000070472DE9F047002862D003
:1055300040F224340330C2F2004420F00309206812
:10554000814558D840F268104FF0FF31C2F2004058
:10555000B9F10C0F98BF4FF00C0900F041FA40F27E
:105560001C3C40F26410C2F2004CC2F200402368BE
:10557000DCF80010D0F800E0A1EB0E02A3EB09016B
:105580008A4232D2D0F80080206808F10406A0EBED
:10559000090703E0B2580346BA4226D208EB020AD2
:1055A000BAF802100029F5D1DAF8041002F10C055E
:1055B0004C1B4C45EED309F1180084421ED2AEEBD1
:1055C0000A0044F268230144C2F2004340F2203052
:1055D0000122C2F200401F683944AAF8022007687D
:1055E00019608F4238BF01602FE040F26810C2F2AC
:1055F000004000F0CDF90020BDE8F08705EB090779
:105600004FF4F55008EB07060C3348F8070009F192
:105610000C007160CAF804707168B26099424FF072
:105620000102AAF8022001D041448F6044F26822AE
:1056300040F22031C2F20042C2F200411368184425
:105640000B688342106000D20860DCF8000050450F
:105650004FF4F550AAF8000015D1DCF8000041889D
:1056600089B140F26011C2F200410A6890420AD04A
:10567000096800BF40684044CCF800004288002A16
:1056800018BF8142F6D140F26810C2F2004000F02B
:105690007FF90AF10C00BDE8F0870000000000006F
:1056A00080B5814210D28B1883420DD9C2B1A1F1CD
:1056B000010CA0F1010E00BF1CF80210531E0EF8E1
:1056C00002101A46F8D10BE0002A08BF80BD01394C
:1056D000431E00BF11F801CF013A03F801CFF9D101
:1056E00080BD00000000000010B50446042A5FFAE7
:1056F00081FC01D3A00707D020461AB111466246AB
:10570000FAF7B1FE204610BD4CEA0C20102A40EA00
:10571000004111D3A4F11000134600BF103B40F824
:10572000101F0F2B41608160C160F7D802F00F029B
:105730001030042AE1D302E02046042ADDD31346C8
:10574000043B40F8041B032BFAD802F00302D4E711
:105750002DE9F0418846074600F046F80546C06846
:10576000FFF7E2FE4FF00006B8B1EA6800210446F8
:10577000FFF7BAFF0822204641462772667200F002
:10578000D3F9FAF7A5FD0646281D04F10C01FFF731
:1057900043FE3046FAF7A0FD26463046BDE8F081CC
:1057A000B0B5044600202072FAF792FD054604F1D8
:1057B0000C00FFF799FE2846FAF78EFD2046FFF70A
:1057C0007BFBB0BD00000000B0B504460020207295
:1057D000FAF77EFD054604F10C00FFF785FE28462A
:1057E000FAF77AFDB0BD000040F208020021C2F2D3
:1057F000004200BF535C834204D010314029F9D1EC
:105800000020704750187047F0B581B00446084634
:1058100015460F46FFF7E8FF0646FFF71DFB043667
:10582000304600BF0068B042FCD1FFF725FB47F0CF
:105830008000207208222046294600F075F9FAF708
:1058400047FD054604F10C013046FFF7E5FD28460B
:10585000FAF742FD01B0F0BD007AC00970470000C0
:1058600010B5FAF735FD44F240010446C2F200419A
:10587000098819B12046FAF72FFD10BD44F24C10EB
:10588000C2F200400068FDF777FF421E44F24C0070
:10589000C2F2004040F22C3CC2F2004C50F832E020
:1058A000AEF11403DCF800009842E3D040F2283156
:1058B000CCF80030C2F200411C300A7043F6387157
:1058C000C2F20041097800290EF1080102D0FAF76E
:1058D00006FDCFE7FAF703FDCCE70000000000006B
:1058E000B0B50446FAF7F4FC94F83410054694F881
:1058F000352001F0F001481C84F8340044F24C00DB
:1059000004F11401C2F2004000EBC200FFF7A8FD51
:1059100044F24C10A16BC2F20040026811430160D6
:105920002846FAF7D9FCB0BDB0B50546FAF7D0FC69
:10593000044605F11400FFF7DFFD95F8350044F249
:105940004C01C2F2004101EBC000FFF7A1FD40B1E4
:1059500044F24C10A96BC2F20040026822EA010135
:1059600001602046FAF7B8FCB0BD0000000000005E
:1059700070B515460A4602211C460646FFF744FF4D
:105980003046FFF715FD0020B583747270BD00002E
:1059900070B50546FAF79CFC05F11406044630463E
:1059A000FFF76EFD58B1A88B4FF6FF71884210D0FB
:1059B0000130A8832046FAF78FFC002070BD3046E6
:1059C000FFF7C2FC2046FAF787FCFFF749FF0020EB
:1059D00070BD2046FAF780FC6FF0020070BD000039
:1059E00070B582B006460191FAF772FCB18B04469D
:1059F00039B1481EB0832046FAF76EFC002002B091
:105A000070BD019810B300F04BFA0546727A002081
:105A10002946286306F11400FFF79EFC019801282F
:105A200009DB05F1440601AA0021304600F07CFBA9
:105A3000304600F0D1FB2046FAF74EFCFFF710FF8E
:105A4000286B002808BF002002B070BD2046FAF77E
:105A500043FC6FF0010002B070BD000000000000C8
:105A600080B582B00AA0FFF7ABFC0CA0FFF7A8FC42
:105A700016A00321012205230FF2440CCDF800C02B
:105A8000FFF79EFC19A0FFF79BFC02B080BD00BF92
:105A90000A205C207C202F0A000000002D20525498
:105AA000202D2020202020546872656164204F70D2
:105AB00065726174696E672053797374656D0A004D
:105AC0004E6F76203132203230323300202F207C4E
:105AD000205C202020202025642E25642E25642093
